:020000040800F2
:1000000048080020D500000899270008E5230008CB
:1000100000000000000000000000000000000000E0
:10002000000000000000000000000000012A00089D
:10003000000000000000000039280008032A000822
:10004000E7000008E700000819290008E700000899
:10005000E7000008E9020008F3020008E7000008D2
:1000600000000000E7000008E7000008E7000008C3
:10007000E7000008E700000800000000ED2B000882
:100080000000000000000000000000000000000070
:10009000892B000800000000C12B0008E7000008C1
:1000A00000000000E7000008000000000000000061
:1000B0006D310008E70000080000000000000000AB
:1000C0000348854600F096F80048004709350008C7
:1000D000480800200448804704480047FEE7FEE740
:1000E000FEE7FEE7FEE7FEE7BD2A0008C1000008C4
:1000F00030B50B46014600202022012409E00D46C0
:10010000D5409D4205D31D469540491B2546954047
:1001100040191546521E002DF1DC30BD70B500248B
:100120002546002801DA01244042002901DA012590
:100130004942FFF7DDFFAC4200D04042002C00D026
:10014000494270BDF0B51FB40646002082B0054696
:100150004024019100901BE0019922460F46304651
:1001600000F037F8049A059B801A994110D3104685
:100170001946224600F01DF8361A8F410197224693
:1001800001200021009F00F014F838184D41009024
:100190002046641E0028DFDC019B00982946324679
:1001A00007B0F0BD421C0178401C0029FBD1801A29
:1001B000704710B5202A04DB0146203A9140002008
:1001C00010BD914020239C1A0346E3401943904000
:1001D00010BD10B5202A04DB0846203AD04000218B
:1001E00010BD0B46D340D0402024A21A91400843B2
:1001F000194610BD064C0125064E05E0E36807CC04
:100200002B430C3C98471034B442F7D3FFF75CFF04
:10021000885E0008A85E000838B50446064805490F
:100220000068FFF765FF604300E0401E0090002873
:10023000FBD138BD40420F007C000020F8B50446D9
:10024000006881688907890F012902D10168C907FF
:1002500022D18168114A10261140012500290ED1B2
:100260008168294381600120FFF7D6FF00F0A2FCDE
:1002700007460CE000F09EFCC01B0A2807D9A06DC1
:100280003043A065E06D2843E0650120F8BD20689B
:100290000068C043C007EDD10020F8BD1700008002
:1002A0007EB5FF226B461A701A710E4B0022DC1DC0
:1002B000F9340EE06E46855C3679754002956E46DF
:1002C0005D5D367875406E463571029D655D3570B1
:1002D000521C491EEED2694608780979000208438B
:1002E0007EBD0000225C000810B5022000F0A6FBD5
:1002F00010BD10B5082000F0A1FB10BD10B50849D5
:1003000000234B6107494A684C1522434A604A68FA
:10031000082422434A60C009C001036010BD0000E8
:10032000300400200020024010B5214A00209169CD
:10033000CB05204904D5486902231843486190152C
:1003400093699B0505D54B69012423434B616302E7
:10035000184393695B0505D54B69082423434B611A
:10036000E301184393691B0505D54B690424234316
:100370004B616302184393699B0405D54B691024B4
:1003800023434B616302184393699B0304D54C6973
:1003900020231C434C6118439369DB0305D54B694B
:1003A000402423434B61A1020843906110BD00002B
:1003B000002002403004002070B5044600F0FAFB33
:1003C0000546184E0AE0601C08D0002C04D000F04E
:1003D000F1FB401BA04201D9032070BDB069C007EA
:1003E000F1D1B069800701D50220B061B069C005C4
:1003F00011D4B06980050ED4B06940050BD4B06942
:10040000000508D4B069800405D4B069800302D423
:10041000B069C00303D5FFF787FF012070BD00203E
:1004200070BD000000200240F0B585B000200490AF
:100430002548027AC17A12068918427A837A120410
:100440001B02D2188C18017B427B09061204891802
:10045000C27B12028D181D494E7F817B0391017C66
:10046000407C09020F1800F0C9FA002000901848DB
:1004700001900220029004A9684600F05DFA00286D
:1004800001D000F093FA22461149022000F098FAB8
:100490000F492A46091D022000F092FA0C49324603
:1004A0000831022000F08CFA094902200C31039A2D
:1004B00000F086FA06493A461031022000F080FA30
:1004C00000F074FA05B0F0BD8402002000000020A6
:1004D000007F0008F8B505460C464035297D012906
:1004E0000DD00121297501688A68520709D5816DEF
:1004F000202211438165002028750120F8BD0220CB
:10050000F8BD174B6268D80547109A42154E8A6AA3
:10051000236812D05B035B0B1A438A62216849038C
:1005200005D5B1680143B1600A20FFF775FE206868
:10053000800312D5B06838430EE05B035B0B9A432F
:100540008A622168490302D5B1688143B16020689D
:10055000800302D5B068B843B06000202875F8BDAC
:1005600001100000002701400068006C7047000087
:1005700070B5040006D0A06D254600264035002841
:1005800002D006E0012070BDE6652E75204600F021
:10059000D1F8A06DC00603D420688168490705D54D
:1005A000A06D10210843A0652E75EBE7A16DFF2219
:1005B0000132914302221143A16581685B4A890798
:1005C000890F012902D10168C9072BD10323616872
:1005D0009B07994205D05B42994202D05B00994249
:1005E00009D101698900890801612068016963688E
:1005F000194301610CE00169890089080161906873
:100600000F21890488439060906861680843906076
:100610002068C16818239943C1602068C168A36835
:100620001943C16090680121490688439060906831
:10063000218F49060843906020688168C90004D46E
:10064000816801221207114381602068C168384A1D
:100650001140C1602069E168022823D000200143D5
:10066000206A226B4003520010430143606B014338
:10067000A06980030143E069C00301432068C268A8
:100680001143C160A06A0146FF39C23905D0E16A51
:1006900008432168CA681043C860606A01210128C4
:1006A00002D00BE00420DAE7206A002823D0A06DF6
:1006B00020221043A065E06D0843E065206C01280E
:1006C00020681FD00169C90703D0016949084900A2
:1006D000016120684169C908C90041612068416918
:1006E000E26B11434161E665A06D80088000401C0B
:1006F000A065002070BD2068C26801231B041A4356
:10070000C260DBE70269FF239B009A430261206815
:100710000269636CE56C1A43A36C2B431A430261B4
:10072000206802690A430261D3E700000027014004
:100730001902FEFF00B500680A4985B088420FD152
:100740000948416B4215114341631020009003207A
:1007500001900020029005206946000700F07AF918
:1007600005B000BD0024014000100240F8B5044669
:100770004069274640370D4608280BD02068C068DE
:10078000C00709D0A06D20210843A065002038755E
:100790000120F8BD082600E00C2600F00BFA0090BE
:1007A00011E0681C0FD0002D05D000F003FA00996D
:1007B000401AA84207D9A06D04210843A065002073
:1007C00038750320F8BD206800683042E9D0A06D7C
:1007D000012149020843A0652068C1680C2209056F
:1007E000890F00291AD1216A002917D10168090748
:1007F00014D5816801234907002908DB416891432A
:100800004160A06D190288431843A06506E0A06D01
:1008100020210843A065E06D1843E065A069002829
:1008200001D1206802600020F8BD000070B50446C8
:10083000216800208968490721D425464035297D53
:1008400001291CD001212975E169012904D0204624
:10085000FFF7F4FC002811D1A16D0A4A1140FF22D4
:1008600001321143A1650021E165297522681C212F
:10087000116021688A6804231A438A6070BD0220CF
:1008800070BD0000FEF1FFFF70B50024024620326B
:100890005179022903D00421C16301243CE001689D
:1008A0000B680E25AB430B6001680B685B085B00AF
:1008B0000B601A4B0168994201D1012121E0174BCD
:1008C0001433994201D110211BE0144B2833994273
:1008D00001D1891515E0114B3C33994201D189149E
:1008E0000FE00E4B5033994202D10121090408E078
:1008F0000A4B6433994202D10121090501E001212B
:100900000906064B083B5960012151710021117104
:10091000816B002900D08847204670BD0800024046
:1009200031B500F047F9044600F044F90099001B86
:100930008842F9D338BD0000F8B5194F0546387C18
:100940000E46012807D0012038741648FFF734FD01
:10095000002802D020E00220F8BD0021C943316008
:100960006C6813E02046FFF7C9FC0E48FFF724FD32
:100970000D494A6808239A434A604A684B159A43CE
:100980004A60002801D0346006E08034A9686A68B3
:10099000C9018918A142E5D800213974F8BD0000C9
:1009A0003004002050C3000000200240034841688A
:1009B00002221143416000207047000000200240E5
:1009C000F8B50C4C1646207C0F46012808D00120B3
:1009D00020740948FFF7F0FC0025002802D006E04B
:1009E0000220F8BD65613E600348FFF7E5FC257411
:1009F000F8BD00003004002050C3000009484168E1
:100A000089070CD54168C90703D00749C160074968
:100A1000C160074901610749016100207047012059
:100A20007047000000200240EFCDAB8905040302AF
:100A3000BFAE9D8C161514137047000010B5044905
:100A40004A69024202D04861FFF7F6FF10BD00007C
:100A500000040140F0B500228DE001249440A4463A
:100A600023407DD04C68022C01D0122C0CD1D4082C
:100A7000A40027183D6A5407E40E0F26A640B5438C
:100A80000E69A6402E433E624C68012C05D0022C14
:100A900003D0112C01D0122C11D1856854000326EB
:100AA000A640B543CE68A6402E438660446865469E
:100AB000AC430D79ED06ED0F954025434560076881
:100AC00054000325A5400E79AF43B607B60FA640E4
:100AD0003E430660C668AE438D68A5403543C56099
:100AE0004C68E40046D5274C666B01252E436663AF
:100AF0009508254CAD002F19BD689407240F0F26CB
:100B0000A640B54305263607B04201D100260FE0C6
:100B10001E4EB04201D101260AE01D4EB04201D165
:100B2000022605E01B4EB04201D1052600E0062654
:100B3000A6402E43BE60184D2C684E689C43F603B9
:100B400000D51C432C606C684E689C43B60300D5EE
:100B50001C436C60AC684E689C43F60202D500E012
:100B600008E01C43AC60EC684E689C43B60200D5BC
:100B70001C43EC60521C0B681C46D44000D06CE750
:100B8000F0BD0000001002400000014000040050D1
:100B900000080050001C005000040140006908409B
:100BA00000D001207047002A01D081617047816226
:100BB000704700000148006870470000780000207E
:100BC00070B504000FD021681348086021681348ED
:100BD000086003CC41602068083C21688860FFF70A
:100BE000E9FF054608E0012070BDFFF7E3FF401B69
:100BF000302801D9032070BD2068C0680028F4D1D6
:100C000020680269E1688A4201D0016101E004497B
:100C10000160002070BD0000CCCC000055550000E4
:100C2000AAAA000000680249016000207047000085
:100C3000AAAA000002480168491C01607047000030
:100C40007800002010B50648016840221143016079
:100C5000002000F007F800F019F8002010BD000097
:100C60000020024010B5044607487D21C9000068F5
:100C7000FFF73EFA01F09CF800222146501E00F0DA
:100C80002BF8002010BD00007C00002010B50C489F
:100C9000416B012211434163816B02041143816363
:100CA00000221146501F00F017F800221146901E36
:100CB00000F012F800221146501E00F00DF810BD91
:100CC00000100240C106C90E012088400149086099
:100CD0007047000000E100E010B501F08BFD10BD91
:100CE000024801680215114301607047007000401E
:100CF00002480168421511430160704700700040CE
:100D0000024801688215114301607047007000407D
:100D10000A4B1A689208920002431A600848026956
:100D200004231A430261012906D040BF20BF20BF1F
:100D3000016999430161704730BFF9E700700040D5
:100D400000ED00E0F8B53E4D014601230020DB0335
:100D50003A4C3B4A4035022932D0042949D008296F
:100D60005AD020290AD12C69296903252D0429404C
:100D70005E00B14203D1A60501D51846F8BD012396
:100D80005B04994203D1A30701D52E48F8BDA942BF
:100D9000FCD111688903F9D51068032109050840C1
:100DA00001210905401A09D0401A05D0884201D115
:100DB0002548F8BD2548F8BD2548F8BD2548F8BDAB
:100DC000E9680C26314009D008290AD004290DD041
:100DD0000C29F4D129698905CFD4F8BD00F0A6F912
:100DE000F8BD11684907FBD52046F8BD00F0BEF9F3
:100DF000F8BDE9680326B6023140EFD00127FF02B3
:100E0000B94202D112685207EED4012292029142F5
:100E1000ECD0B142DED0F8BDE96803231B031940D2
:100E2000DCD001235B03994202D112685207DBD464
:100E3000012212039142D9D0F8BD00000024F40031
:100E4000001002408890000020A1070000093D002A
:100E500040420F0080841E00F8B504460078534DD0
:100E600080067AD5514800264038806BC00006D4F1
:100E70004E484038816B02041143816301264C487F
:100E80000168C90510D40168821511430160FFF79C
:100E900091FE074604E0FFF78DFEC01B64283AD898
:100EA00043480068C005F6D5404840380068032133
:100EB000090562680840114081420AD09003800F02
:100EC000032806D1394840380068800301D5012045
:100ED000F8BD286903210904084021D00A40824254
:100EE0001ED0207880061BD528692A6988430121F5
:100EF000C9040A432A612A698A432A612861C00514
:100F00000ED5FFF757FE074607E0FFF753FEC11B5C
:100F10002848814201D90320F8BD28698005F4D50D
:100F200060688103890F032908D1204B403B196871
:100F300003221205914310400143196028690322DE
:100F400061681204114008432861002E05D017483B
:100F50004038826B01048A4382632078800705D57C
:100F6000E8680C218843A1680843E86020784007BE
:100F700006D5E868032189028843E1680843E860F0
:100F80002078000706D5E868032109038843216912
:100F90000843E8602078000606D5E8680321890444
:100FA000884361690843E8600020F8BD40100240B2
:100FB0000070004088130000F8B5044653480E4600
:100FC0000068C007C00FB0420AD250480168490803
:100FD0004900314301600068C007C00FB0426FD1C3
:100FE00020784B4F800705D5F868F0218843A16829
:100FF0000843F8602078C00752D06068022817D0F4
:10100000032818D03968012818D08905002957DA33
:10101000F968890889000143F960FFF7CBFD0546AF
:101020006068022812D003281CD0012826D033E0A3
:1010300039688903EAE739688901E7E74907E5E79D
:10104000FFF7B8FD411B3348814223D8F8680007F9
:10105000800F0228F4D123E0FFF7ACFD411B2D489F
:10106000814217D8F8680007800F0328F4D117E0F1
:10107000FFF7A0FD411B274881420BD8F868000705
:10108000800F0128F4D10BE0FFF794FD411B2148AC
:10109000814201D90320F8BDF8680007800FF3D121
:1010A0001A480168C907C90FB1420BD9016849083C
:1010B0004900314301600068C007C00FB04201D051
:1010C0000120F8BD2078400706D5F86807210902FD
:1010D0008843E1680843F8602078000707D5F8687E
:1010E0000721C90288432169C9000843F86000F05C
:1010F0003DF8F968084A0906090F515CC8400749DC
:1011000008600020FFF7AEFD0020F8BD002002407F
:101110000010024088130000655E00087C0000207B
:1011200001480068704700007C0000200448054921
:101130000068C968044A4905490F515CC8407047B6
:101140007C000020001002407E5E00080448054933
:101150000068C968044A8904490F515CC840704757
:101160007C000020001002407E5E000810B5194A85
:10117000D1680C230846184004280BD0082810D04A
:101180000C2810D050680004410F0120C003491CF6
:10119000884010BD1068C00601D50F4810BD0F482B
:1011A00010BD0F4810BD88020E4B000F185C0902DD
:1011B000D368890F491CDB0301D5094A05E0126891
:1011C000D20601D5044A00E0044A5043FEF790FFDE
:1011D00010BD00000010024000093D000024F40092
:1011E00000127A00755E0008F8B504460078F24EE9
:1011F000C00749D0F0680007800F022807D0F068C8
:101200000007800F032809D1F068C00306D53068B5
:10121000800339D56068002872D035E0012160680C
:101220000904884202D13068084310E005230122F6
:101230001B0492049842306802D110433060F2E7F8
:1012400088433060306808400090306890433060D8
:10125000606800280CD0FFF7ADFC054604E0FFF7FE
:10126000A9FC401B64287DD830688003F7D50BE0CB
:10127000FFF7A0FC054604E0FFF79CFC401B642838
:10128000F1D830688003F7D42078800741D5F06822
:101290001F270007800F3F02012807D0F0680007D2
:1012A000800F032809D1F068C00306D430684007D6
:1012B00017D5E068012823D113E0E068002817D093
:1012C00031680922914301433160FFF773FC054601
:1012D00004E0FFF76FFC401B0228C4D830684007C9
:1012E000F7D570682169B84309020843706010E0BF
:1012F0003068400840003060FFF75CFC054605E0C0
:1013000099E0FFF757FC401B0228ACD83068400733
:10131000F7D42078C00676D5F068A84F0007800F74
:101320000BD0A06900285DD03068FF21013108434F
:101330003060FFF73FFC054644E03068800502D589
:10134000A069002877D0206A71683940884212D994
:1013500001F07AFA0028AED17068216AB8430843D8
:10136000706000E0BDE07068217F0002000A09069D
:10137000084370600FE07168B943014371607068A1
:10138000217F0002000A090608437060206A01F00C
:101390005BFA00288FD1206A410B0120C003491C51
:1013A0008840F16809060A0F8549895CC84085496B
:1013B00008600020FFF756FC25E0FFF7FBFB401B11
:1013C00002288AD830688005F7D57068216AB8434A
:1013D000084370607068217F0002000A0906084314
:1013E000706010E03168FF20013081433160FFF709
:1013F000E1FB054604E0FFF7DDFB401B022870D847
:1014000030688005F7D420786F4D000723D56069D8
:101410000028286910D0012108432861FFF7CAFB82
:10142000074604E0FFF7C6FBC01B022859D828690D
:101430008007F7D50FE0BCE0400840002861FFF7C7
:10144000B9FB074604E0FFF7B5FBC01B022848D8EC
:1014500028698007F7D42078400762D500200090E3
:10146000B06BC00006D4B06B012109070843B0631C
:101470000120009055480168C90510D40168821503
:1014800011430160FFF796FB074604E0FFF792FB6C
:10149000C01B642825D84D480068C005F6D5FF203C
:1014A000A1680130814203D129690143296111E01A
:1014B00001229202002907D005231B02994203D181
:1014C000296911432961EFE7296981432961286965
:1014D00090432861A06800280ED0FFF76BFB0746F9
:1014E00006E05FE0FFF766FBC11B3948814259D82F
:1014F00028698005F6D50CE0FFF75CFB074605E0A0
:10150000FFF758FBC11B324881424BD82869800540
:10151000F6D40098002804D0B16B01200007814365
:10152000B163606A002842D0F1680907890F032976
:101530003FD001273F060228306805D0B84330600D
:10154000FFF738FB04462FE0B8433060FFF732FB6B
:10155000054604E0FFF72EFB401B022822D8306826
:101560008001F7D4E16AA06AF2680843216BFD2389
:101570001B049A4311430843F060306838433060DD
:10158000FFF718FB044604E0FFF714FB001B0228DA
:1015900008D830688001F7D509E0FFF70BFB001B86
:1015A000022801D90320F8BD30688001F5D400205D
:1015B000F8BD0120F8BD00000010024000E000006E
:1015C000655E00087C000020401002400070004072
:1015D00088130000FFB581B016460F46040005D001
:1015E00025466035687A002803D007E0012005B061
:1015F000F0BD00202872204600F012FE2420687200
:1016000020680168490849000160606A002802D02A
:10161000204601F05EFB204601F048FC0128E6D0A0
:1016200020688168012292031143816020688168EB
:1016300052009143394381600499700509040143C4
:1016400020680268064B1A400A430260206801685D
:10165000012211430160204601F0A0FBC7E7000012
:10166000FFFF00FC006889005030081800687047D0
:10167000006889005030081802607047F8B50546C8
:10168000044620352878012819D00120287002202E
:1016900068702168CA204862216853204862206827
:1016A0008168012292029143816020688168120161
:1016B00091438160FFF77EFA064600270FE0022083
:1016C000F8BDFFF777FA811B7D20C000814206D963
:1016D0002168FF204862032068702F70F8BD2068E1
:1016E000C0684007EDD52168FF204862012068707E
:1016F0002F700020F8BD0000F7B5054604462035E0
:101700002878012813D001202870022068702168F1
:10171000CA204862216853204862206880680027F8
:101720004005002810DAFFF745FA064608E00220D7
:10173000FEBDFFF73FFA811B7D20C00081421BD810
:101740002068C0684007F4D42068826801218902BB
:101750008A4382602068C16880221140204A89182B
:10176000C160FFF727FA06460DE0FFF723FA811B59
:101770007D20C000814206D92168FF2048620320F5
:1017800068702F70FEBD2068C0684007EDD52168E5
:101790000198486120688168C908C9008160206893
:1017A0008168029A114381600E4801680122120586
:1017B0001143016081681143816020688168921142
:1017C0001143816020688168121111438160216892
:1017D000FF204862012068702F700020FEBD0000CD
:1017E0007FFBFFFF0004014002480168042211430F
:1017F000016070470070004010B504460068C06882
:10180000400509D52046FFF7EFFF2068C168802218
:101810001140054A8918C16001200449000548614A
:1018200001202034607010BD7FFBFFFF00040140E9
:1018300010B500680B464068C021C9430140000252
:10184000000ECC04D870E40E5C708C06A40E090463
:10185000490F9C701970002A0AD101F02DF8D87038
:10186000587801F029F85870987801F025F89870A8
:10187000002010BD30B50B460168896A59600168C7
:1018800009694904490C9960006804680F482146B9
:10189000014088024D04800E18706D0E49065D707F
:1018A000490E99706102490E40242140D970002AE6
:1018B0000AD101F001F81870587800F0FDFF587057
:1018C000987800F0F9FF9870002030BD7F7F7F008E
:1018D00070B5040005D0254620356878002802D070
:1018E00006E0012070BD00202870204600F042F87C
:1018F000022068702168CA2048622168532048622B
:10190000204600F0ECFFFF210028206803D0416250
:1019100004206870E5E78268154B1A4082602068F1
:1019200082686368A6691A43236933431A43826055
:101930002268E06810612068026923891B041A4349
:1019400002612068C26880239A43C2602068C26C2A
:1019500092089200C264E269606902432068C36C25
:101960001A43C2642068416201206870002070BD83
:10197000BFFF8FFF00680549884205D1044801690F
:1019800001229204114301617047000000280040C9
:1019900040100240F8B505460446203528780B462D
:1019A000012822D001202870022068705878002A6F
:1019B0001DD000F081FF987800F07EFFD8789E78E7
:1019C0000004064358781978000249030843064387
:1019D0002168CA204862216853204862204600F0EE
:1019E0007EFF002700282AD117E00220F8BDC1069B
:1019F00003D5EF2108400A305870D87800F064FF12
:101A00000604587800F060FF00020643987800F062
:101A10005BFF064318784003D9E711480640206869
:101A200046602068C16880229143C1602068806858
:101A300080060CD4204600F08DF8002807D02168DD
:101A4000FF204862042068702F700120F8BD2168D3
:101A5000FF204862012068702F700020F8BD000050
:101A60003FFFFF00F8B506460446203630780D46A5
:101A700001280ED0012030700220707020680027ED
:101A80008068002A07D040061AD5287800F014FF95
:101A900017E00220F8BD400600D4EF70287800F06F
:101AA00013FF0204687800F00FFF00020243A878D9
:101AB00000F00AFF0243E8780004024300920BE0C2
:101AC000EF702978A878090408436978EA78090250
:101AD00012041143084300902168CA20486221681B
:101AE00053204862204600F0FAFE00281FD1184912
:101AF00000980840216808602068816801229204EB
:101B000091438160E9682869014320688268114334
:101B100081602068C16880229143C160206880682C
:101B200080060CD4204600F015F8002807D0216864
:101B3000FF2048620420707037700120F8BD2168D2
:101B4000FF2048620120707037700020F8BD00004F
:101B50007F7F7F0070B505460068C168A022914371
:101B6000C160FFF727F87D260446F60006E0FFF780
:101B700021F8001BB04201D9032070BD2868C0685D
:101B80008006F4D5002070BD70B5040006D025464F
:101B90004035687C0026002802D005E0012070BD99
:101BA0002E74204600F02EF8022068742068016828
:101BB000402291430160A168606822690843E1689E
:101BC00011430843616901220843A169520211408F
:101BD0000843E1690843216A0843A16A0843216870
:101BE0000860A0690421000C0840616A084321686C
:101BF00048602168E06A0861666501206874002019
:101C000070BD000000B500680C4985B0884212D153
:101C10000B48416B821411434163E0200090022085
:101C20000190002103200390029104910520694650
:101C30000007FEF70FFF05B000BD000000300140B7
:101C400000100240FFB5054604464035687C81B06F
:101C5000012872D100293CD0002A3AD0287C0128E2
:101C60006BD00120287412206874002767652163F7
:101C7000A286E286E764A764A763A787E7870126B1
:101C8000A06A7603B04207D120680168B1430160C1
:101C900020680168314301600121A068C9038842BE
:101CA00005D1206801680122920311430160206878
:101CB0000168490603D40168402211430160E068CD
:101CC0000028606808D0002820D0E08E01281DD0B0
:101CD00026E0012005B0F0BD002802D0E08E0128EA
:101CE00008D1206B411C216321680078C860E08E18
:101CF000401EE086E08E002820D0002202212046EF
:101D0000049B00F011FE002815D1EAE7206B216842
:101D10000088C860206B801C2063E08E401EE08637
:101D2000E08E00280AD0002202212046049B00F009
:101D3000FBFD0028EAD00320CCE729E0A06AB042EE
:101D400005D12068016801221203114301600022BD
:101D500002212046049B00F0E7FD2026002807D141
:101D6000012280212046049B00F0DEFD002803D0E4
:101D7000606D30436065DEE7A068002803D120680D
:101D8000C16880680090012068742F740020A1E76A
:101D900002209FE7042204490428086902D09043E6
:101DA000086170471043FBE700E000E07047000067
:101DB000094910B5401E884201D9012010BD074CC9
:101DC00060610321081F00F015FD0020A0610720BD
:101DD0002061002010BD0000FFFFFF0000E000E0D8
:101DE00010B5FFF7E3FF10BD70B502462032137D3A
:101DF000012B1BD0012414750223537503685D6801
:101E00007026B5435D6003685D680E6835435D60AC
:101E100003689D688026B5439D60006883684968B3
:101E20000B43836054750020107570BD022070BD97
:101E300070B5040005D025462035687D002802D005
:101E400006E0012070BD00202875204600F00AF849
:101E500002206875211D206800F0DCFE01206875F5
:101E6000002070BD006801218907884204D1034821
:101E7000816B012211438163704700000010024012
:101E80000168CA6801231A43CA60006801681943DF
:101E900001600020704700000168CA6852085200C3
:101EA000CA600068016A044A114203D10168490806
:101EB000490001600020704711110000F8B5054687
:101EC00004462035287D012817D001272F750220D0
:101ED0006875206882687726FF23B2431B029A4305
:101EE00082600868502836D00EDC202856D006DCE8
:101EF00000284DD010283FD14DE00220F8BD3028F9
:101F00004FD0402838D13BE060282CD0702816D024
:101F100001221203801A0DD090422DD1CB684A685D
:101F20008968206800F09EFE206881680122920383
:101F300011430EE020688168C908C90009E0CB6838
:101F40004A688968206800F08DFE20688168B14386
:101F50003143816010E0CA684968206800F095FE4E
:101F60005021206806E0CA684968206800F09EFE9B
:101F70006021206800F081FE6F7500202875F8BD93
:101F8000CA684968206800F080FE40212068F1E7B7
:101F900000212068EEE710212068EBE7202120686F
:101FA000E8E730212068E5E7704770B5044600682F
:101FB00001690025C9438907002915DBC168C943A8
:101FC000890711D4E91E016101202075206880690C
:101FD0008007204602D0FFF7E7FF04E000F078F822
:101FE000204600F076F8257520680169C943490745
:101FF00017D4C168C943490713D40421C9430161F7
:1020000002202075206880698005800F204602D05C
:10201000FFF7CAFF04E000F05BF8204600F059F833
:10202000257520680169C943090716D4C168C943E9
:10203000090712D40821C9430161042020752068D2
:10204000C0698007204602D0FFF7AEFF04E000F031
:102050003FF8204600F03DF8257520680169C94326
:10206000C90617D4C168C943C90613D41021C9438E
:102070000161082020752068C0698005800F204616
:1020800002D0FFF791FF04E000F022F8204600F0B4
:1020900020F8257520680169C943C90708D1C168BE
:1020A000C943C90704D1891E0161204600F012F816
:1020B00020680169C943490609D4C168C943490672
:1020C00005D44021C9430161204600F004F870BDE9
:1020D000704770477047704770477047F8B502689F
:1020E0000446D069116805072D0F07D1830605D571
:1020F0008B0603D5204600F09AFEF8BD9368202693
:10210000002D65D0DD07ED0FFF2721370F402F434E
:102110005ED0C70706D0CF0504D501271762E26E4F
:102120003A43E266820708D5DA0706D0276802221A
:102130003A62E26E04273A43E266420708D5DA07BC
:1021400006D0236804221A62E26E02231A43E26672
:10215000020709D50A4632402A4305D023680822DF
:102160001A62E36E1343E366E26E002AC5D080066E
:1021700004D5880602D5204600F059FEE06E00071F
:1021800003D42068806840061CD5204600F040FE3D
:1021900020688168490611D5826840218A4382609F
:1021A000606E00280AD01D498163606EFEF76CFBEB
:1021B0000028A2D0606E816B8847F8BD2046FFF7EB
:1021C0008CFFF8BD2046FFF788FF0020E066F8BDD1
:1021D0002546C7026035002F0ADA5B0208D50120C8
:1021E000000510626E72AE722046FFF775FFF8BDF3
:1021F000030605D50B0603D5204600F053FFF8BDB6
:102200004006FCD54806FAD51368204640218B438A
:1022100013606E7200F0E5F8F8BD0000FD2D0008B7
:1022200000B50068114985B088421CD11048816B07
:1022300001225204114381630E4800900220019054
:10224000002002900320039004200490052069469A
:102250000007FEF7FFFB002211461C20FEF73CFDA5
:102260001C20FEF72FFD05B000BD0000004400401B
:10227000001002400206000070B5034660339C7AED
:10228000202C44D100290BD0002A09D001258468D4
:102290002D03AC4206D10669002E03D1CE0701D032
:1022A000012070BD1E7A012E31D001261E724165BB
:1022B000014640310A834A83FF22AC4204D10469BB
:1022C000002C12D1134A10E07F25002C08D00122E7
:1022D000120794420AD10269002A04D03F2204E086
:1022E0000469002C01D08D8300E08A830021C1663F
:1022F00022229A72197201688A6832438A600068E1
:102300000168FF22213211430160002070BD0220CC
:1023100070BD0000FF0100007047FFB5074605468D
:102320006037787A83B00C46202858D1002C0CD026
:102330000598002809D00120A9680003814207D12F
:102340002869002804D1E00702D0012007B0F0BDC1
:10235000387A012843D0012038720020E866212015
:102360007872FEF727FC01902E46403605983082A1
:102370000598708218E0708A401E7082069800905E
:10238000002280212846019B00F0BFFE002818D1C2
:102390000120A9680003814202D12869002812D0D7
:1023A000296820788862641C708A0028E3D1069826
:1023B0000090002240212846019B00F0A6FE002844
:1023C00008D00320C2E720882968C005C00D8862B4
:1023D000A41CE9E72020787200203872B6E70220BA
:1023E000B4E77047FEE70000FEB5384D0027EC7BF0
:1023F000374E002C65D0287B3C214843697B401830
:102400002146FDF775FE30872846297A6E30017027
:10241000697A41706100611887700918AA7A2039B9
:102420004A77EB7A8B77CF7701783C270D467D434F
:10243000407857432D18FF18BD420FD2E1252D01DA
:102440006A433C256B43D218E1231B01594368437F
:102450000818101A611EFDF761FE30640120641E29
:10246000F065019428E068002A18184800926E3040
:10247000141820462038417FE123C27F1B015943B5
:102480005118807F3C225043326C80180F18194637
:1024900038467764FDF72CFE0C4B009A6E33985447
:1024A00008463C21FDF724FE60703C213846FDF7CC
:1024B0001FFEA1706D1CF5650198F56DA842D2DC78
:1024C000FEBD7777FDF7B0FFFEBD0000840200205F
:1024D000000000201CB5174815490160032292072F
:1024E00042600021016404231822C3638260012238
:1024F0000261C16041620262C16201634163816144
:10250000FF228163C23243618262C161FEF730F80B
:10251000002800D0FEE708480090001401906946AA
:102520000448FDF7D7FF002800D0FEE71CBD0000DF
:10253000002401408000002010000010F0B51D486C
:1025400087B0C26A04210A43C262C26A0A40059285
:10255000C16A01263143C162C16A31400591C16A35
:1025600002252943C162C06A0327284005907F03E2
:102570000520002239460007FEF715FB082000243D
:10258000009005200194694602940007FEF762FA64
:1025900000956946084802950194FEF75BFA05200C
:1025A000029469460007009701960394FEF752FAD9
:1025B00007B0F0BD0010024000040050F0B5214CFF
:1025C00087B01F48206000212046FFF74BF81E4FC0
:1025D000B84232D01D480126467200257F20656032
:1025E000A06025616561A561FF20E561E06020468E
:1025F000FFF76EF9002800D0FEE7684605704570C9
:1026000085700395002269460E480495FFF72AFA63
:10261000002800D0FEE76846067546758675C575C4
:10262000002205A90748FFF7B5F9002800D0FEE70A
:102630003A4600210348FFF71BF807B0F0BD000041
:1026400000280040E0000020F232000000000020DE
:1026500010B50E480C490160FF2105314160002191
:102660008160C16001610122520241618261C161E8
:1026700080224162026281620721C162FFF784FA0F
:10268000002800D0FEE710BD00300140040100200A
:10269000F8B505461348416B2022114341631348A6
:1026A000114C0022124F8260124E90C0715D001DCD
:1026B00006C01438FFF7BCFB002800D0FEE7A76275
:1026C000705DE062E06801210843E0602068082155
:1026D000084320600021162000F06AF8162000F060
:1026E0005DF8F8BD00100240001401401402002003
:1026F0001F030000485E000810B50121124886B093
:102700008907016000241149846041607D21C9006E
:102710000461C160FFF78CFB002800D0FEE70120B8
:102720000003009069460848FFF7C8FB002800D066
:10273000FEE7049404A904480594FFF755FB00281C
:1027400000D0FEE706B010BD5C0100203F1F000076
:1027500010B50D480B490160E1214902416000219B
:102760008160C16001618161C1610C2201624261CD
:102770000B4641620A46FEF72DFF002800D0FEE717
:1027800010BD00000044004094010020002800D14A
:102790000846401EC0B2704770470000C106C90E0F
:1027A00001208840014908607047000000E100E016
:1027B0008307FF22DB0E9A408907090E9940002803
:1027C0000BDA0007000F0838830808489B00181828
:1027D000C36993430B43C3617047830804489B005C
:1027E0001818036893430B430360704700ED00E043
:1027F00000E400E08307FF22DB0E9A408907090E00
:10280000994000280BDA0007000F083883080848B1
:102810009B001818C36993430B43C3617047830837
:1028200004489B001818036893430B4303607047E8
:1028300000ED00E000E400E07047401CC0B28842B8
:1028400000D300207047000070B5174B0021DA68F4
:102850001206120F18D19A6B154CD500134A02D5E7
:102860001268224009E09E6B01252D072E439E63CE
:1028700012689E6B2240AE439E63A24204D10322A3
:102880009203904200D101210A4802685208520086
:102890000A4302600068C007C00F884201D00120CF
:1028A00070BD002070BD00000010024000700040AC
:1028B000001800000020024001090A2200075143CD
:1028C000000F4018C0B27047002102E00A38C0B2C1
:1028D000491C0A28FAD20907090E0843704770B547
:1028E00005460068C168490613D40021C943C16088
:1028F000FEF760F97D260446F60006E0FEF75AF979
:10290000001BB04201D9032070BD2868C068400692
:10291000F4D5002070BD000010B50248FEF76CFF32
:1029200010BD0000E0000020FFB581B01D46164636
:102930000446FEF73FF93146264640360746002951
:1029400018D03BE0681C15D0002D04D0FEF732F9FA
:10295000C01BA8420ED920684268E0218A43426029
:102960001CE0206802688A430260206802680A430B
:1029700002601CE02068816802988843E2D122E06E
:10298000681C1BD0002D04D0FEF714F9C01BA84210
:1029900014D920684168E0229143416020680268B0
:1029A00040218A430260A06AC9018842D9D001202F
:1029B000707400203074032005B0F0BD2068816879
:1029C00002988843DCD00020F6E7000031B53223BE
:1029D000012269460948FFF735F90122052554030C
:1029E0002D0721462846FEF7DEF80A2000F0C6FC37
:1029F000002221462846FEF7D6F838BD0401002003
:102A0000704710B5FEF716F9FFF7EAF910BD0000A0
:102A100010B5284998B008680324E402A043CA14FA
:102A200080180860FEF76CF923490869A043086123
:102A30000620009088150290092003901020049031
:102A40000220099040040B90000100240C900A948D
:102A50006846FEF7C9FB002800D0FEE70F200D9066
:102A600003200E900F941094002111940DA8FEF7EE
:102A7000A3FA002800D0FEE72220129001200004D3
:102A80001390149412A8FEF7E7F9002800D0FEE78F
:102A9000FEF746FB7D21C900FDF72AFBFFF788F909
:102AA0000420FFF777F900221146501EFEF714F9B3
:102AB00018B010BD0070004040100240104801687E
:102AC000821511430160C1680E4A1140C16001685E
:102AD0000D4A114001608168490849008160016820
:102AE0000122920491430160C168FD2212049143C6
:102AF000C160002101610549C00388607047000082
:102B0000001002400C40FF88F6FFF6FE00ED00E0EA
:102B100030B51A4C87B0A06B21040843A063FEF7C0
:102B2000E7F8FEF7DDF8E0680121C9038843E060BB
:102B3000E06A01210843E062E06A08400590E06A2B
:102B400002252843E062E06A6946284005900C4867
:102B50000090032001900020029005200007FDF75F
:102B600079FF69460748FDF775FFE06A40084000B5
:102B7000E062E06AA843E06207B030BD00100240A6
:102B8000FFFF0000000400500A49086940084000A7
:102B9000086109480279002A06D0002202710868FB
:102BA000064A104008607047034901202039087622
:102BB000704700000008014020000020FEFF0000D8
:102BC00010B506480168064A114001600548FFF744
:102BD000ECF905490120887010BD00000014014087
:102BE000FEFF0000140200200000002001208007EA
:102BF000016949084900016104490A6804231A432C
:102C00000A600168024A114001607047007000408C
:102C1000FEFF0000F0B502680124A4070F4D104E1E
:102C2000A04203D0A84201D0B04204D1134670277D
:102C30004A68BB431A43A04203D0A84201D0B04225
:102C400004D103231B029A43CB681A4302608A68AB
:102C5000C2620968816201214161F0BD0008014042
:102C60000014014030B58468FF252D021B02134378
:102C7000AC430B432343836030BD826870239A4387
:102C80000A4307210A438260704730B5036A046A29
:102C90006408640004628469F025AC431201224395
:102CA0000A24A3430B438261036230BD30B5036A3B
:102CB0001024A34303628369046A0F252D031203C2
:102CC000AB431A43A0239C43090121438261016263
:102CD00030BD10B5818CC90707D001684A6801234F
:102CE0005B049A43836A1A434A60818C890707D53B
:102CF00001684A6801231B049A43C36A1A434A6065
:102D0000818C490707D501684A6801239B049A43CF
:102D1000036B1A434A60818C090707D501684A682A
:102D20000123DB039A43436B1A434A60818CC90633
:102D300007D501688A6801231B039A43836B1A43F2
:102D40008A60818C890607D501688A6801235B0344
:102D50009A43C36B1A438A60818C490612D5016875
:102D60004B6801221205046C934323434B60016CB2
:102D7000914207D101684A6803235B059A43436C7B
:102D80001A434A60818C090607D501684A68012305
:102D9000DB04806C9A4302434A6010BDF8B50025FD
:102DA0000446C566FDF706FF074620680068124E18
:102DB000000709D501213B4600224905204600961F
:102DC00000F0A3F900280DD12068006840070BD55A
:102DD00001213B46002289052046009600F095F926
:102DE000002801D00320F8BD202060346072A0725A
:102DF00025720020F8BD0000FFFFFF0110B5806ABA
:102E00000022014640314A834A82FFF766F910BD2D
:102E100001680A68FF2321339A430A6001688A68BF
:102E2000520852008A60202160308172704770B56C
:102E30000246403201466031938B8D7A0C46016820
:102E4000222D05D08869082210438861022070BDB8
:102E5000496A01268568360389B2B54202D10569FF
:102E6000002D0BD01940436D5D1C45651970518BC9
:102E7000491E0904090C518307D015E0456D19401E
:102E80002980416D891C4165F1E701680A68FF23CB
:102E900021339A430A6001688A68520852008A60A6
:102EA0002021A172FFF738FA002070BDFEB504465C
:102EB0002269A168E369114362691027002600684E
:102EC0001A431143026835466D4B1A400A430260AB
:102ED00020684168032212039143E2681143416074
:102EE000684A2168A069914201D0226A10438A6829
:102EF0000B231B029A4302438A60634A206863499A
:102F000090420AD1C8680C2108402BD004282DD04B
:102F1000082829D00C2810D10EE05A4A90420CD132
:102F2000C8680321890208401CD01115401A1DD021
:102F3000401A19D0884200D108270220FDF702FF6D
:102F40000190504B514922684039D81300929A425F
:102F500035D1002F0CD0022F0DD0042F12D0082F06
:102F60001CD113E00027E8E70227E6E70427E4E79F
:102F7000FEF7DCF808E00868C00601D5444805E023
:102F8000444803E0FEF7F2F8002873D0626851006D
:102F90005118814202D81103814201D2012569E012
:102FA000010E06025008002330185941FDF7CAF8F7
:102FB00003210902384A411A914259D9EEE7E269E0
:102FC00082422DD13B0000F0A5F90906080B241917
:102FD0002424241F2400019812E0FEF7B7F80FE024
:102FE00008686168C00602D548082C4A01E02C4AEE
:102FF00048088018FDF77CF886B20BE0FEF7B6F8BB
:10300000616840004A08F4E7616801224808120438
:10301000EFE70125310909013007400F084327E098
:103020003B0000F077F909070A0D061D0606062980
:103030000600B3E7FEF77AF814E0FEF787F811E030
:1030400008686168C00602D54A08114801E01148C5
:103050004A081018FDF74CF881B20098C16009E0E9
:10306000FEF784F861684A088018FDF741F880B2DD
:103070002168C8602846FEBD61684A08E9E700008B
:10308000F369FFEF00480040004400404010024058
:1030900000093D000024F400FFFC0F0000127A003C
:1030A0000048E8016921095C212901D0022070470C
:1030B000014640314A8A002A12D0012382681B034C
:1030C0009A4202D10269002A15D0C26C531CC36413
:1030D000006812788262488A401E48820020704749
:1030E00001680A6880239A430A60006801684022E8
:1030F00011430160F2E7C26C03681288D205D20D59
:103100009A62C26C921CC264E5E7FFB581B01E46AC
:10311000174605460A9C1CE0601C1AD0002C04D0FF
:10312000FDF748FD801BA04213D928680168FF22E3
:10313000A132914301602868816849084900816093
:10314000202060356872A87200202872032005B024
:10315000F0BD2868C1690298884304D00020B842B5
:10316000DAD00020F3E70120F9E7000010B50F489E
:10317000C169890615D50E490A680E4B1A400A60C6
:1031800000224A62426A0D480B4B847B1A55827BAF
:10319000132A02D2827B521C8273086801221043D8
:1031A00008600748FEF79AFF10BD00000044004089
:1031B00000140140FEFF0000A202002020000020B9
:1031C0009401002010B50E490C4A0A600D4A800097
:1031D0001058486000208860C86008618861C86134
:1031E0000C2208624A6148620346024601460448CE
:1031F000FEF7F0F9002800D0FEE710BD00440040C3
:1032000094010020245E000838B57D20C000FDF741
:1032100087FBFFF7FDFB02F019F9002000F096F89C
:10322000022000F093F81448FEF728FA134C012509
:10323000207B092802D0618F002900D1E573002886
:1032400012D10FA10FA002F07DF9002000901048CC
:103250000023C1798079012202F05BF80D484078A3
:103260002074207B002806D0C0B2182803D025285F
:1032700001D0E573257338BDE00000200000002078
:1032800000000000CACED0CCCBC5CDC8C500000020
:10329000840200201C04002010B5002100F006F874
:1032A00010BD10B5012100F001F810BD73B50C463A
:1032B0003223012269461648FEF7C4FC01F0A8FF3C
:1032C00005252D07002C01D0012200E000228021DD
:1032D0002846FDF768FC042000F05CF80122940306
:1032E00021462846FDF75FFC142000F053F8002229
:1032F00021462846FDF757FC7D20C00000F04AF823
:10330000002280212846FDF74EFC01F091FF7CBD94
:103310000401002030B47446641E2578641CAB425E
:1033200000D21D46635D5B00E31830BC184702E025
:1033300008C8121F08C1002AFAD170477047002040
:1033400001E001C1121F002AFBD17047F8B5B82770
:103350000546861C0FE028463843C0B2FFF79CFFA5
:103360000020FFF799FF00240020FFF79AFF641C5C
:103370003D2CF9DB6D1CB542EDDBF8BD08B5002135
:1033800000910A214843009901E0491C00918842BC
:10339000FBD108BD08B500210091814201D0491C34
:1033A000FAE708BDFFB50E461A4681B00832354629
:1033B0000A993035971D30301C46009200291AD0EA
:1033C00001291CD0022914D1C0B22146039A01F070
:1033D00041FFA11D2E20039A01F03CFF761CF0B2A4
:1033E000039A009901F036FF39462420039A01F030
:1033F00031FF05B0F0BDC0B22146039A02E021467C
:103400000120039A01F026FFA11D2E20039A01F04E
:1034100021FFE8B2E4E70000F0B51B4E0020F17B8D
:10342000002900D10420337A3C21757A59434F1981
:10343000B17A3C240A466143F47A09198F4201D3D8
:1034400001210843317B767BF14201D102273843C9
:10345000E1273F017A433C277C4312190B4C278F0D
:10346000D219E1273F017B433C277D435B19794318
:10347000D21A89198A4201DC10210843216C3C29A7
:1034800001D208210843F0BD840200200000002082
:1034900070B56424884229D2184C3C23A478534345
:1034A0001B193C246043834201D98A4201D900247C
:1034B00021E08A4204D11248C07B401EC4B21AE007
:1034C0000F4901246E3101E0641CE4B26000201851
:1034D0000A5CE1252D016A43401845783C26754376
:1034E0008078521910189842EED304E00549002064
:1034F0004877FCF799FF204670BD00001C040020AF
:1035000084020020000000208AB0FDF79BFBFFF73B
:103510007FFAFFF7FDFAFE48C16A01273943C1620D
:10352000C06A002638400090FA48029003200390B9
:10353000052002A904960007FDF78CFAFEF7FEFFAE
:10354000FFF706F9FFF7D8F8FFF738F8FFF780F82C
:10355000FEF7C0FFF148F049016006214160F049E3
:10356000C1608160FDF72CFB002800D0FEE7ED4C28
:10357000A07ADF210840A072A07AFFF727FA032182
:103580000520002249030007FDF70DFBE348FDF786
:1035900049FBFF20F530FDF7C3F901F075FF01F09D
:1035A000A3FFE1480068DD4D20668035401C0CD14A
:1035B0002E726E72AE72EE722E736E73EE73AE7307
:1035C000082068742F74FCF72FFF206ED34D010E76
:1035D00080352972010C6972010AA972E872D24819
:1035E000001D0068010E2973010C6973000AE8735D
:1035F000CD480C300068A873CB48103000682066B6
:103600000007000F6874FFF743F8687CFFF7DAFDE6
:10361000206E000A2874FEF7E7FEC048FDF702FBA3
:1036200000206077607A00286CD0FCF7FDFE022055
:10363000207301F00BFF0020FFF788FE0220FFF748
:1036400085FEB84CE7730026A676A07ADF252840D1
:10365000A072A07AFFF7BAF9FF20F530FDF760F904
:10366000A07A2840A072A07AFFF7B0F90022114694
:103670000220FDF731FB0220FDF724FBAB48FDF7EC
:10368000D5F800211C20FFF793F81C20FFF786F8DF
:10369000A24870380068026820252A4302609F49CA
:1036A0009E48267064230522B2317038FEF735FE3D
:1036B0009A499A480F22B2317038FEF7DDFD01F0C9
:1036C000C5FE20349548FDF7ADFA9648417F007F4E
:1036D000924D08188035287000211C20FFF768F8EB
:1036E0001C20FFF75BF82846F038006802682021AC
:1036F0000A430260052008210007FDF74FFA8949B7
:1037000008706BE085498031C87B002834D0087A86
:103710003C22844650434A7A3C23164680188A7AD3
:10372000CD7A53435B19984226D2087B497BC84225
:1037300022D0E1231B015A433C235D43238F5219BE
:10374000D518E12362461B015A4333463C26734396
:10375000D2187043AA1A401882420DDD206C3C2812
:103760000AD3724801216030FDF77CFF142803D290
:103770006D4808300068607727735AE76748FDF79F
:1037800051FA6079002802D06671002007E067488E
:1037900001216030FDF766FF80B21E2806D2401C72
:1037A00082B2624801216030FDF762FF5F487D21EF
:1037B000002209016030FDF79FFF5548816B02042C
:1037C0001143816301210846FDF7A2FA0520082173
:1037D0000007FDF7E3F9534908704F70514800782E
:1037E0000028CBD04F484078002819D04D4846706B
:1037F0004E486030FDF742FFFFF706FD67714B480A
:1038000001216030FDF72EFF192803D9454846777E
:10381000FCF70AFE4548002201216030FDF728FF31
:103820003E48FDF7FFF9E07A00280DD04048217BA3
:103830008078884208D02073607B401C6073607B76
:10384000132801D937484776012080070168314A9B
:10385000521E114001603348007D00283148007B32
:1038600006D000280CD0182804D0252802D04BE020
:10387000002805D02B486E70007B18282FD000E060
:103880006F70AE7064212948FCF770FF2748FCF781
:103890006BFE80B201902348007B00280BD02149A9
:1038A000182808D0252806D0887ADF221040887290
:1038B000887AFFF78BF8E17B0198884201D019489C
:1038C00007721848027A002A1ED0C774867482795B
:1038D000002A06D00199E1738671C6710BE0AF70C2
:1038E000D0E7019B8A1C934224D2891E8B4221DBA4
:1038F0004179491C417141790A2905D946710199DB
:10390000E173C771067287712078002814D022E015
:1039100000100240FFFF00000030004004020020C1
:10392000FF0F000000000020007F00088000002042
:103930001C0400204671E6E70022F849F848FDF72C
:1039400077FF0022F749F648FDF794FFF548017824
:10395000A9714078E871F1486438407F00287CD034
:103960006078002879D12078002876D1A079642861
:1039700011D3A8793C214843E9793C234218A87A1D
:103980003C214843E97A4118287A58436B7AC01899
:10399000FFF77EFD7BE0E07800287AD0E670E14B0F
:1039A000E12118780901484359783C2251434018D5
:1039B00099784018D94964398864A1794A008A18ED
:1039C000D9498A5CE12109014A43A1794B00CB180E
:1039D000D549591849783C2359435218A1794B00CD
:1039E000CB18D14959188978CC4B5118CB4A8C4601
:1039F000643AD164C94962466439098F643B8E4692
:103A000072445A650092A279A1795300D318C64A2C
:103A10009A18203A527FE1231B015A434B00CB18DE
:103A2000C1495B18203B997F3C234B43A179D218B5
:103A30004B00CB18BC495B18203BDB7F7146D2188A
:103A4000B64B5118643B1A6599650791604505D3DB
:103A50000099884202D219460AE04AE0AF49643927
:103A6000904213D3079A904210D2A279521EA271AB
:103A7000009A101A4887CF740E73CF733D200874D4
:103A800048740020FFF762FC33E002E06420A0717C
:103A90002FE0A44BA0791A7841004018A249085C95
:103AA000824226D118464278A0794300C0184018B7
:103AB000407882421DD19B488278A0794300C0188B
:103AC00040188078824214D1944864380673C773D2
:103AD00092493D206439087448740020FFF736FC91
:103AE0008E488E496438008F6439401C48870846E8
:103AF000C7748A486438C079002819D08749643966
:103B0000087B002815D0182813D0019918390329EB
:103B100003D2824A643A08283BD00198163802281A
:103B200044D2AF208000FFF729FC207C00283BD046
:103B3000ABE2019818380328E07C22D2002818D084
:103B400076486438007E0028F2D07748A638FEF721
:103B5000A3F97248643846874677FCF765FC6F48DE
:103B6000E6746438867500223221312001F072FB40
:103B70008BE26E48E77446626B48A638FEF780F920
:103B800083E20028D4D06848E674A638FEF784F9AA
:103B90007BE2AF208000FFF7F1FB517B0029C7D10A
:103BA0005E48643847739CE027749AE00198401F90
:103BB000022872D2AF208000FFF7E0FB607C002873
:103BC00017D056486438017E0029B1D0007B1238E6
:103BD0000300FFF79FFB19101A24293349F7F75305
:103BE000F7F7F7F7F7F7F7151F2EF73C4EF7F75CE7
:103BF000F700677475E0A8791821FEF71EFE7FE0D4
:103C0000E8793C21FEF719FE80E0287A1821FEF7BA
:103C100014FE81E0687A3C21FEF70FFE8CE0A87A62
:103C20001821FEF70AFE8DE0E87B6421FEF705FE11
:103C30008EE0E87A3C21FEF700FE8FE0A87B0A21A7
:103C4000FCF756FA0A460A21FEF7F7FD90E0A87B3A
:103C50000A21FCF74DFA0A22424308460A21FEF7E0
:103C6000ECFD1018A873ADE0287B6421FEF7E5FD9C
:103C700091E0687B3C21FEF7E0FD92E0287CF72193
:103C8000FEF7DBFD2874002800D12F749AE0687CD1
:103C90000921FEF7D2FD94E0FFE701980B380228D6
:103CA00074D2AF208000FFF769FBA07C002817D0FA
:103CB0001A486438017E002987D0007B123803003F
:103CC000FFF728FB191A263C424E658080718080E0
:103CD000808080808020364880596B80807B800087
:103CE000A774124846621048A638FEF7C9F8E67273
:103CF0000A4864388673C8E1A8791821FEF746FDA2
:103D0000A8715FE0E8793C21FEF740FDE87159E0D9
:103D1000287A1821FEF73AFD287253E0640000204B
:103D2000E00000201C040020F202002000080140F6
:103D3000687A3C21FEF72AFD687243E0A87A1821D0
:103D4000FEF724FDA8723DE0E87B6421FEF71EFD2E
:103D5000E87337E0E87A3C21FEF718FDE87231E0BD
:103D6000A87B0A21FCF7C4F90A460A21FEF70EFDDA
:103D70000A21484375E7A87B0A21FCF7B9F90A2212
:103D8000424308460A21FEF701FD6AE71EE0287B50
:103D90006421FEF7FBFC287314E0687B3C21FEF7EE
:103DA000F5FC68730EE0287CF721FEF7EFFC287421
:103DB000002807D1F620287404E0687C0921FEF76A
:103DC000E5FC6874FE48FFF7D9FA5EE1607CA17CEF
:103DD000084374D0FB48FEF75FF8FB483D210174AF
:103DE0008773017E002901D00676D9E0007B123866
:103DF0000300FFF78FFA190E28424F6A9AD5D5B4FF
:103E0000D5D5D5D5D5D5D51B355CD582A7D5D5C9C2
:103E1000D500607C0028A87903D01821FEF70DFD9D
:103E200002E01821FEF7B2FCA871B9E0607C00281E
:103E3000E87903D03C21FEF700FD02E03C21FEF7CB
:103E4000A5FCE871ACE0607C0028287A03D018213A
:103E5000FEF7F3FC02E01821FEF798FC28729FE0C1
:103E6000607C0028687A03D03C21FEF7E6FC02E083
:103E70003C21FEF78BFC687292E0607C0028A87AF7
:103E800003D01821FEF7D9FC02E01821FEF77EFCD2
:103E9000A87285E0607C0028E87B03D06421FEF7EF
:103EA000CCFC02E06421FEF771FCE87378E0607CF2
:103EB0000028E87A04D03C21FEF7BFFC03E073E061
:103EC0003C21FEF763FCE8726AE0607C0028A87B76
:103ED00007D00A21FCF70CF90A460A21FEF7ADFCCF
:103EE00006E00A21FCF704F90A460A21FEF74EFC17
:103EF0000A2148431018A87352E0607C0028A87B70
:103F000009D00A21FCF7F4F80A22424308460A21A4
:103F1000FEF793FCEEE70A21FCF7EAF80A22424397
:103F200008460A21FEF732FCE4E7607C0028287B83
:103F300003D06421FEF781FC02E06421FEF726FC39
:103F400028732DE0607C0028687B03D03C21FEF7BD
:103F500074FC02E03C21FEF719FC687320E0607CF1
:103F60000028287C07D0F721FEF767FC287400287A
:103F700016D12F7414E0F721FEF708FC28740028EE
:103F80000ED1F62028740BE0607C0028687C03D0FA
:103F90000921FEF752FC02E00921FEF7F7FB6874E5
:103FA00067706674A67470E0207C00286DD0854828
:103FB000FDF772FF84484675C67226740020FFF72D
:103FC000C5F98148C77380493D2008740A7B182AC7
:103FD00000D048747C48807E002804D153007B4A7E
:103FE0007949D25C0A736178002907D076490028A4
:103FF00004D0CF7766704E77FCF716FA2078002849
:1040000013D07148807E00280FD026707048A9799F
:104010000170E97941708670014600226D48FDF714
:1040200021FD69484677FCF7FFF96748807F002843
:1040300018D06549887E002814D06420A0710846F5
:10404000C07E002802D00846C67607E05E49487F59
:10405000002805D000204877FCF7E6F95A4805E02B
:104060000120F8E75848817F002900D0867756481C
:10407000817E002900D08676002101918773A17A84
:10408000002902D0A672022101734F48007B2B2821
:104090007ED243007B449B885B009F442A005A01E8
:1040A000E30126026802E002AF0301045B04C504D9
:1040B0002405790079007900790079000801DF0191
:1040C000EF0132027402EC02F3034D046A0479003A
:1040D000310579007900790079007900790079005B
:1040E000EF01320274022203F3034D0479007900D8
:1040F0007C053548C07B002814D037A137A001F0DB
:1041000021FA3148C673807A202108432E498872EB
:104110000846807AFEF75AFCE6722B488673A0792F
:10412000401CA0712A4841782748007C814231D048
:10413000254800790028244803D00179012902D0BC
:104140001BE0077119E020480221017101F07EF99E
:1041500021A122A001F0F6F91B48C673807A202124
:104160000843194988720120FFF708F91648807A38
:10417000FEF72CFCE672144886730096E979A8795C
:104180000023012201F0C5F8114841780E4800E0F3
:104190008CE001740E4881780B48407C81423FD00E
:1041A0000948807A20210843074988720120FFF7D7
:1041B000E5F80548807AFEF709FC0348408F13E0D4
:1041C000D02000004C02002000000020CC55000848
:1041D0001C040020E000002000000000CACED0CC6B
:1041E000CBC5CDC8C5000000401E80B200231F22F1
:1041F000012101F0EDF8FD48408FFC49401E488741
:10420000FA483C21408FFBF773FFE870F7483C21E8
:10421000408FFBF76DFFF64829718178F3484174B0
:10422000F248418F002941D14776817ADF2211403F
:104230008172807AFEF7CAFBA079642836D2E87BC7
:104240000890A179401E884230DAA671AA7B002A24
:104250002CD0287B3C214843697B40187D21C90034
:1042600052185043FBF744FF81B2E048E14AC1874E
:10427000914200D9C287DD483C21C08FFBF738FF4F
:10428000C0B2207507903C22E17150434018009164
:104290000899FBF72DFFD549096C8842CED2D34847
:1042A000C777A7700798287300986873E9E2CF482A
:1042B000C17B0029FAD0817ADF2211408172807A95
:1042C000FEF784FB0A21607DFBF712FF3030C0B29D
:1042D00001220B2100F0BEFF0A21607DFBF708FFE1
:1042E000084630300122112100F0B4FF01221621CE
:1042F0003A2000F0AFFF0A21A07DFBF7F9FE303035
:10430000C0B201221A2100F0A5FF0A21A07DFBF70F
:10431000EFFE084630300122202100F09BFF0122F1
:1043200025213A2000F096FF0A21207AFBF7E0FED3
:104330003030C0B20122292100F08CFF0A21207AFE
:10434000FBF7D6FE08462F3001222F2100F082FF16
:10435000ACE7A648C07B00280FD0FFF75DF8000649
:10436000000E687138D0A4A1A6A001F0EBF89F4818
:104370000A210177C7769D48C6739C48407F002874
:104380005BD0FCF717FC99498866CA6E831A7D22B8
:10439000D200934201D98F75C866887D00284CD021
:1043A0008E75C87D002840D0CE750096E979A87931
:1043B0002323012200F0ADFF01222E21002000F076
:1043C00049FFE8790A21FBF793FE3030C0B20122A1
:1043D000322100F03FFF30E08448C6760677407F08
:1043E00000281DD08AA18BA001F0ACF801222E215B
:1043F000002000F02FFFE8790A21FBF779FE30302A
:10440000C0B20122322100F025FF78482323007B2F
:10441000012200090090E979A87900F07AFFAAE763
:104420007FA17CA001F08EF8A5E7CF750096E97911
:10443000A8792323012200F06CFF6C48817E0029BB
:1044400086D0407F002801D075A105E000223821E8
:10445000012000F0FFFE74A16EA04EE36348877751
:104460000773FDE36148C07B0028FAD071A173A0F7
:1044700001F068F85D48C673007B2EE05B48C07BA6
:10448000002805D06BA16DA001F05CF85748C673F9
:104490002770207CA17C0843617C08430AD05348E4
:1044A000007E002806D00096E979A879232301220E
:1044B00000F02FFFFCF77EFB4C498866CA6E821A1B
:1044C000FA2A01D98F75C866887D0028C9D08E75F3
:1044D000C87D002806D0CE75087B00090090E979D8
:1044E000A87924E2CF750096F9E74048C07B002800
:1044F000B7D055A151A001F025F83C48C673007B08
:104500002DE03A48C07B002805D04FA14BA001F018
:1045100019F83648C673207CA17C0843617C0843A7
:104520000AD03248007E002806D00096697A287AA0
:104530002323012200F0EDFEFCF73CFB2B498866AB
:10454000CA6E821AFA2A01D98F75C866887D00283A
:1045500087D08E75C87D002806D0CE75087B0009EF
:104560000090697A287AE2E1CF750096F9E71F4852
:10457000C07B0028AAD036A130A000F0E3FF1B4882
:10458000C673007B2DE01948C07B002805D030A100
:104590002AA000F0D7FF1548C673207CA17C0843F1
:1045A000617C08430AD01148007E002806D000969E
:1045B000E97AA87A2323012200F0ABFEFCF7FAFA8D
:1045C0000A498866CA6E821AFA2A01D98F75C866A6
:1045D000887D00288CD08E75C87D00283CD0CE7593
:1045E000087B00090090E97AA87AA0E10000002089
:1045F0001C0400206F170000CFC0D0C0CCC5D2D0A3
:10460000DB000000D3D1D2C0CDCEC2C8D2C50000DD
:10461000C2CACB00CFD0CEC3D0C0CCCCC00000002B
:10462000C2DBCACB00000000CEC1D0C0C1CED2CA0E
:10463000C0000000C2D0C5CCDF000000D3D1D2C082
:10464000CDCEC2CAC0000000D1D2C0D0D20000007E
:10465000D1D2CECF00000000CF750096C3E7FE4850
:10466000C07B002886D0FDA1FEA000F06BFFFA48B9
:10467000C673007B2CE0F848C07B002805D0F7A16A
:10468000F8A000F05FFFF448C673207CA17C0843CB
:10469000617C084309D0F048007E002805D0E87B03
:1046A00000232A22012100F0EFFDFCF783FAEA49FA
:1046B0008866CA6E821AFA2A01D98F75C866887D03
:1046C000002887D08E75C87D002804D0CE75087B61
:1046D0000309E87B02E0CF75E87B00232A22012151
:1046E00056E2DD48C07B00281CD0E1A1E1A000F02B
:1046F00029FFD948807A20210843D7498872084683
:10470000807AFEF763F9D4488673C6736675A6751A
:10471000D14926723D20487408464677FBF784FE4F
:10472000CD488676CC48D64986738978407C8142CC
:104730006FD00A21607DFBF7DBFC3030C0B2012274
:104740000B2100F087FD0A21607DFBF7D1FC0846B4
:1047500030300122112100F07DFD012216213A2086
:1047600000F078FD0A21A07DFBF7C2FC3030C0B21A
:1047700001221A2100F06EFD0A21A07DFBF7B8FC92
:10478000084630300122202100F064FD012225215D
:104790003A2000F05FFD0A21207AFBF7A9FC3030B7
:1047A000C0B20122292100F055FD0A21207AFBF731
:1047B0009FFC0846303001222F2100F04BFD207A6B
:1047C00060723C21FEF739F82072607A3B280DD1E7
:1047D000A07DE0753C21FEF730F8A075E07D3B2818
:1047E00004D11821607DFEF728F86075A44881780F
:1047F00099484174827A20210A4310E19648C07B8F
:1048000000283ED09FA1A1A000F09CFE9248C67354
:1048100024E02FE2207CA17C0843617C08430CD07B
:104820008D48007E002808D0A87B0A21FBF760FC99
:104830002A2301220096FEF7B5FDFCF7BBF9864955
:104840008866CA6E821AFA2A27D8887D0028D8D0AE
:104850008E75C87D00280AD07F48C675A87B0A21BE
:10486000FBF746FC7C4A127B1209009205E0CF75EB
:10487000A87B0A21FBF73CFC00962A230122FEF7C5
:1048800091FDEDE17448C07B0028C3D07DA17FA0DD
:1048900000F058FE7048C673BCE78F75C866D4E751
:1048A0006D48C17B0029ECD0807ADF2108406A493D
:1048B00088720846807AFEF789F8774977A000F079
:1048C00041FE65482323007B012200090090697B9B
:1048D000287B00F01EFD6048C673C1E1207CA17CEE
:1048E0000843617C08430AD05B48007E002806D05C
:1048F0000096697B287B2323012200F00AFDFCF748
:1049000059F955498866CA6E821AFA2A1FD8887DD5
:104910000028B6D08E75C87D002804D0CE75087BDF
:104920000009009001E0CF750096697B287B232366
:10493000012200F0EEFC93E14748C07B0028CDD077
:10494000554956A000F0FEFD4348C673C6E78F7573
:10495000C866DCE74048C07B002805D044A152A0CF
:1049600000F0F0FD3C48C6733B48018F491C41876D
:1049700076E13948C07B002803D13748807D002884
:1049800015D04CA148A000F0DDFD3348C6738675F4
:10499000807A20210843304988720846807AFEF7E1
:1049A00015F8E6722C4886734677FBF73DFD3448D0
:1049B00081782948407C814226D02748817A20206E
:1049C000014325488172807AFEF700F82248408F23
:1049D0000023401E80B21F22012100F0F9FC1E4876
:1049E000408F1D49401E48871B483C21408FFBF7E4
:1049F0007FFBE87018483C21408FFBF779FB20488B
:104A000029718178144841741348418F002902D0DC
:104A1000017E002907D04776827ADF210A40827220
:104A2000807AFDF7D3FF1BE10B48C07B002857D0ED
:104A30000948C6730020FEF789FC1FA121A000F0E1
:104A400081FD2E210022084600F004FC00222A21CC
:104A50004D2000F0FFFB39E000000020C2D1C5C3AB
:104A6000CE000000CACED0CCCBC5CDC8C900000056
:104A700000000000CDC5CFD0C5D0DBC2CDCE000038
:104A80001C040020D0CED1D220CDC000D1D3D2CEB4
:104A9000D7CDDBC90000000034460008CACED0CC18
:104AA00020CEC1D9C5C50000C2CACB20D2C5D1D243
:104AB00000000000CC3AD100464545442076312E16
:104AC000334C00004156544F4B4F520000223221CC
:104AD000522000F0BFFB00223821552000F0BAFB25
:104AE000F7484676BCE0F648C17B002907D0C6737C
:104AF0000020FEF72BFCF3A1F44800F023FDAFE00B
:104B0000EF48C07B002826D0ED48C6730020FEF792
:104B10001DFCEFA1002000F049FB687C0300FEF7BC
:104B2000F9FB0906080A0C0E101214163000EAA14F
:104B30000EE0ECA10CE0EEA10AE0F0A108E0F2A189
:104B400006E0F4A104E0F6A102E0F8A100E0FAA179
:104B5000012000F02BFBFCF72DF8D9498866CA6EBE
:104B6000821AFA2A01D98F75C866887D002877D005
:104B70008E75C87D002806D0CE75087B0309287C79
:104B800004E0F0A1E4E7CF75287C00232422002173
:104B900000F07AFB64E0CA48C07B00282DD0C848EA
:104BA000C770C6730020FEF7D1FBC9A1002000F03A
:104BB000FDFA0023287C2422194600F065FB687C5E
:104BC0000300FEF7A7FB0906080A0C0E10121416C4
:104BD0001A00C1A10EE0C3A10CE0C5A10AE0C7A163
:104BE00008E0C9A106E0CBA104E0CDA102E0CFA17D
:104BF00000E0D1A1012000F0D9FAFBF7DBFFB049BA
:104C00008866CA6E821AFA2A01D98F75C866887DAD
:104C1000002825D08E75C87D002802D0CE75CCA185
:104C20001BE0CF75687C0300FEF774FB0906080AD9
:104C30000C0E101214161A00A7A10EE0A9A10CE088
:104C4000ABA10AE0ADA108E0AFA106E0B1A104E08C
:104C5000B3A102E0B5A100E0B7A1012000F0A6FADF
:104C60009748817B002905D0BC4989782173E77278
:104C7000667386739248007E002825D0207C002829
:104C800022D08F498F76087B4200B54810180A7EE3
:104C9000805C0873092813D98F75182812D025282D
:104CA00010D011280ED00846C775FBF783FF844942
:104CB000C866087B1A2801D02A2803D1CF7301E0E7
:104CC0007F4886757E4806767D48017E002908D09B
:104CD000417B002905D08776252101730676C773AD
:104CE0004673817C002901D08674C6747448407E66
:104CF000002837D07248807ADF21084070498872D6
:104D00000846807AFDF762FE6D48407D002803D09A
:104D10006B480921017304E00020FEF717FB684887
:104D200007736748C773E6726673467606763D2159
:104D300001744174207800280BD026708748A97927
:104D40000170E97941708670014600228548FCF7C0
:104D500089FE6078002802D066705948C777E672ED
:104D6000574887745648C07F00280BD05448C677F0
:104D7000A07800281BD0A670FBF756FBFDF734FB8C
:104D80004F48C7734E488078002874D04C488670CE
:104D90007548297C0078884208D1A17B7248FBF7CE
:104DA0007FFA00044649000C888703D0E2E16420C2
:104DB000A071E1E76C4A5078032809D0062874D026
:104DC0006949127814310A70803048708F706AE037
:104DD000907813468446002802D001282ED05BE04C
:104DE000D978587900901A7908181202521E801842
:104DF000142851DA5C4A187814321070032050706D
:104E000000984919400090700791002061460902FE
:104E10008C460AE0624607991318CB5C524942005F
:104E2000143151180B71CE70401C00998142F1DC95
:104E30004D4814308078C01CC0B20BE1DA78587944
:104E40000090197910180902491E40189446032849
:104E500022DA1978444B1A4A143319700321597015
:104E6000009949009970287870321070A8785070B5
:104E7000907000200CE07EE1114962467031091803
:104E8000535C39494200143151180B71CE70401CEB
:104E900000998142F0DCCBE7334819781430017077
:104EA000832135E101E00320D4E02F482E4B8078A8
:104EB00000285BD001286ED002286DD023E10000CD
:104EC000000000204D4F444255530000F8450008B3
:104ED000E0E4F0E5F1000000F1EAF02020203234B7
:104EE00030300000F1EAF02020203438303000006B
:104EF000F1EAF0202020393630300000F1EAF020CD
:104F00002031343430300000F1EAF02020313932E1
:104F100030300000F1EAF020203338343030000027
:104F2000F1EAF0202035363030300000F1EAF02090
:104F30002035373630300000F1EAF020313135329B
:104F400030300000F1EAF06F31313532303000009E
:104F5000F1EAF02020202020202000001C04002066
:104F6000CC550008E0000020A2020020D8780528D7
:104F700041D914283FD21979002930D1864A59796C
:104F8000125C91422BD22954112806D0062807D052
:104F9000072805D00FE024E0A8E08048C7700AE0A9
:104FA0007F48A9790170E979417086700146002235
:104FB0007C48FCF757FD79484677C777C7737A492D
:104FC00008460A7814300270062242708A7882708D
:104FD000CA78C2700A7902714979417139E0197849
:104FE0001DE0D9780091002906D0009A1946012ABF
:104FF00032D0022A50D086E01879002875D16A484C
:10500000407902287FD2FEF707FA0006000E687189
:105010000CD062484677C777C77363480178624807
:105020001430017016214170032173E05E485B4A21
:1050300041795177D777D7730246037814321370CA
:105040000623537083789370C378D37000791071FE
:1050500051710620009075E00A799446002A52D1D9
:105060004B79022B4FD20A784F4914310A7006222D
:105070004A7088700098C870604608714B71474943
:105080000092CF73002B03D0088F401C488700E0AC
:105090004E871820087355E00A79002A33D1424917
:1050A00049798C4602292ED23F493F4B0978143367
:1050B00019700621597098700098D8701A7161465D
:1050C0005971062000906046002807D0A87C3C213A
:1050D0004843E97C41183148418701E02F48468721
:1050E0002E48C773182101732CE00CE0D9780B000F
:1050F00009D12D4909790091002904D12A4949791A
:105100008C46002908D028480178143001701621F7
:10511000417002218170C6E623490A7814310A7071
:10512000214A062114325170114688700846C37016
:105130000098087160464871184807764773062240
:105140000092C773184800991430FBF7A9F8134967
:10515000642388871449009A14318854009A000AFD
:105160008918487010490F48009A1431B430921CC5
:10517000FDF7D3F8A6730948C178002901D1FEF7DD
:10518000A1FA017B2A29FAD0C670687CFEF71AF8CA
:10519000687CFDF77DFAF2E7515E00080000002010
:1051A0001C040020E0000020A2020020F3B581B022
:1051B00004460298FAF7F6FFC5B2B8202043FEF77E
:1051C0006BF80020FEF768F80027104E0EE0002470
:1051D00002980621C05D48438019005DFEF761F822
:1051E000641CE4B2062CF3D37F1CFFB2AF42EED3B3
:1051F00009E00024305DFEF754F8641CE4B2062C8C
:10520000F8D36D1CEDB20A2DF3D3FEBD2256000873
:1052100000B585B08020009001200190002003900F
:105220000290052069460007FBF714FC05B000BD9D
:1052300000B585B08020009002200190002103205D
:10524000039002910491052069460007FBF702FCD8
:1052500005B000BD70B50546B82002430C46D0B27B
:10526000FEF71AF8E0B2FEF717F8062045430548A6
:1052700000242D18285DFEF714F8641CE4B2062CF7
:10528000F8D370BD2256000870B514460E46054688
:10529000002B13D0012B10D1632804D90A46A11F7B
:1052A0000120FFF7D7FF324621460120FFF7D2FF4A
:1052B0003246A11D0120FFF7CDFF70BD632D07D938
:1052C0006421FAF715FF3030C0B23246A11F02E068
:1052D0000A46A11F0120FFF7BDFF092D0BD964214C
:1052E0002846FAF705FF08460A21FAF701FF324679
:1052F0002146303002E0324621460120FFF7AAFF66
:105300000A212846FAF7F4FE084630303246A11D3D
:10531000D1E7FFB51F4681B00B373E1D0A99B51D79
:105320001C46002925D0012933D002291FD10A218A
:10533000FAF7DEFE30300091C0B22146039AFFF743
:1053400089FF0099039A08463030A11DFFF782FFBC
:1053500039463A20039AFFF77DFF31460120039A30
:10536000FFF778FF29460120039AFFF773FF05B086
:10537000F0BD0A21FAF7BCFE30300091C0B22146E0
:10538000039AFFF767FF0099039A08463030A11D82
:1053900007E019460120039AFFF75CFFA11D0120D9
:1053A000039AFFF757FF39463A20039AFFF752FF57
:1053B0000A210298FAF79CFE0C463030C0B2314602
:1053C000039AFFF747FF204630302946039ACCE77F
:1053D000F8B50D46144607463C21FAF789FEC6B2D9
:1053E000009138463C21FAF783FEC0B20A21FAF751
:1053F0007FFE0F46092E04D93030C0B22A4621461E
:1054000002E02A4621460120FFF724FF38463030CB
:105410002A46A11DFFF71EFF21462A460B313A20DE
:10542000FFF718FF0A210098FAF762FE0E463030A7
:105430002146C0B22A460F31FFF70CFF3046214605
:1054400030302A461531FFF705FFF8BD10B564204E
:10545000FDF7A0FF0220FBF763FAE220FDF71CFF37
:10546000EE20FDF719FFA420FDF716FFA820FDF799
:1054700013FFC020FDF710FFA020FDF70DFFAF20A8
:10548000FDF70AFF10BD000070B51248416B042201
:105490001143416311480021124D81600E4CC560DB
:1054A0000F4E016150C00838FCF7C2FC002800D044
:1054B000FEE7A662E562E06801210843E06020683B
:1054C0000822104320602068084320601420FDF764
:1054D00065F970BD00100240000801404C02002038
:1054E0003F1F0000DC05000070B51349886B0125E3
:1054F000284388638C0411480021C8228160C2605F
:105500000F4E016150C00838FCF792FC002800D013
:10551000FEE7A6627D20C000E062E0682843E0600C
:1055200020680821084320602068284320600F205D
:10553000FDF734F970BD0000001002405C0100204E
:105540003F1F0000F3B581B00646FAF72BFEC7B245
:105550000298FAF727FEC5B2002408E0214606208B
:105560004143305D0022FFF775FE641CE4B2BC428B
:10557000F4D3154E09E00024305DFDF792FE641C63
:10558000E4B2062CF8D37F1CFFB20A2FF3D3002419
:1055900009E021460620414302980122005DFFF701
:1055A00059FE641CE4B2AC42F3D309E00024305D40
:1055B000FDF777FE641CE4B2062CF8D36D1CEDB247
:1055C0000A2DF3D3FEBD0000225600080000021190
:1055D0000712041305140615081603170A1801010B
:1055E000011A070707070707070707071001070141
:1055F0002202230324041505260627071818070787
:105600002A0A070707070707070707070707070704
:1056100012021303140410101606170707070707D2
:105620001A0A000000000000000000000000000056
:10563000000000000000000000000000000000006A
:10564000000000000000000000000000000000005A
:10565000000000000000000000000000000000004A
:10566000000000000000000000000000000000003A
:10567000000000000000000000000000000000002A
:10568000000000000000000000000000000000001A
:10569000000000000000000000000000000000000A
:1056A00000000000000000000000000000000000FA
:1056B00000000000000000000000000000000000EA
:1056C00000000000000000000000000000000000DA
:1056D00000000000000000000000000000000000CA
:1056E0000000000000000000000700070000147F19
:1056F000147F1400246A2A2B12002313086462000A
:10570000364955225000000503000000001C2241CC
:1057100000000041221C000014083E081400080884
:105720003E080800005030000000006060200000CB
:1057300000606000000000606000000000000000E9
:1057400000003E5149453E0004427F400000426156
:10575000514946002141454B31001814127F100079
:105760002745454539003C4A494930000171090542
:105770000300364949493600064949493E0000368A
:1057800036000000005636000000081422410000D8
:1057900014141414140041221408000002015109C9
:1057A0000600324979413E007E1111117E007F4989
:1057B000494936003E41414122007F4141221C00BF
:1057C0007F49494949007F09090901003E4149498A
:1057D00072007F0808087F0000417F4100002040E0
:1057E000413F01007F08142241007F4040404000BB
:1057F0007F020C027F007F0408107F003E41414180
:105800003E007F09090906003E4151215E007F09E3
:105810001929460046494949310001017F0101002B
:105820003F4040403F001F2040201F003F40384085
:105830003F006314081463000708700807006151F3
:1058400049454300007F4141000002040810200048
:105850000041417F0000040201020400404040403A
:1058600040280001020400002054545478007F486E
:1058700044443800384444442000384444487F00BD
:10588000385454541800087F010102000C5252523F
:105890003E007F080404780000447D400000202082
:1058A000443D00007F102844000000007F4020009D
:1058B0007C04180478007C080404780038444444CC
:1058C00038007C1414140800081414187C007C0898
:1058D00004040800485454542000043F444020006D
:1058E0003C4040207C001C2040201C003C403040BC
:1058F0003C004428102844000C5050503C004464A4
:10590000544C44001F001F111F001F001D151700DD
:105910001F0017151D00380408100E002A2A7F2AC0
:105920002A007C1211127C007F49494931007F49CD
:10593000494936007F0101010300603E213F6000BC
:105940007F494949410077087F0877002249494942
:1059500036007F2010087F007C2012097C007F0821
:1059600014224100403E01017F007F020C027F00B3
:105970007F0808087F003E4141413E007F01010150
:105980007F007C555455440038555455180020105C
:105990000804020002040810200030180C0603005E
:1059A000060C1830600008492A1C0800081C2A4907
:1059B000080010207F20100004027F020400080865
:1059C0006B0808002222272222007810207B030087
:1059D0005D3614365D0000070507000030484803B7
:1059E0000300080F080F08081414F414141408F81E
:1059F00008F80808000F080F080800001F14141406
:105A00000000FC14141400F808F8080808FF08FF48
:105A100008087C55544500001414FF141414080899
:105A20000F0000000000F8080808E7E7E7E7E7E7ED
:105A3000E1E1E1E1E1E1FFFFFF000000000000FF24
:105A4000FFFF4900490049006B146B146B007F494C
:105A50007F497F000000FF0000000808FF000000F1
:105A60001414FF00000008FF00FF000008F808F809
:105A7000000038555455580014F700FF000000FF8F
:105A800000FF000014F404FC00001417101F0000B5
:105A9000101F101F000014141F0000000808F80059
:105AA00000007C1211127C007F49494931007F4976
:105AB000494936007F0101010300603E213F60003B
:105AC0007F494949410077087F08770022494949C1
:105AD00036007F2010087F007C2012097C007F08A0
